:100000001C308A00892C0000FF00030E8301A10030
:100010000A08A0008A010408A2007708A300780853
:10002000A4007908A5007A08A600831383128C30F7
:100030008400801E1D288C1A34288C308400801C7B
:1000400023288C183728220884002308F700240866
:10005000F8002508F9002608FA0020088A00210E79
:100060008300FF0E7F0E09008A110A12B12A8A113D
:100070000A12752A0A108A100A11413E03188A0AC8
:1000800082000034C134813440340134C0348034BF
:1000900041340134C034803441340034C1348134BB
:1000A00040340134C034803441340034C1348134AC
:1000B00040340034C134813440340134C03480349D
:1000C00041340134C034803441340034C13481348B
:1000D00040340034C134813440340134C03480347D
:1000E00041340034C134813440340134C03480346C
:1000F00041340134C034803441340034C13481345B
:1001000040340134C034803441340034C13481344B
:1001100040340034C134813440340134C03480343C
:1001200041340034C134813440340134C03480342B
:1001300041340134C034803441340034C13481341A
:1001400040340034C134813440340134C03480340C
:1001500041340134C034803441340034C1348134FA
:1001600040340134C034803441340034C1348134EB
:1001700040340034C134813440340134C0348034DC
:1001800041340134C034803441340034C1348134CA
:1001900040340034C134813440340134C0348034BC
:1001A00041340034C134813440340134C0348034AB
:1001B00041340134C034803441340034C13481349A
:1001C00040340034C134813440340134C03480348C
:1001D00041340134C034803441340034C13481347A
:1001E00040340134C034803441340034C13481346B
:1001F00040340034C134813440340134C03480345C
:1002000041340034C134813440340134C03480344A
:1002100041340134C034803441340034C134813439
:1002200040340134C034803441340034C13481342A
:1002300040340034C134813440340134C03480341B
:1002400041340134C034803441340034C134813409
:1002500040340034C134813440340134C0348034FB
:1002600041340034C134813440340134C0348034EA
:1002700041340134C034803441340034C1348134D9
:1002800040340A148A100A11483E03188A0A820070
:100290000034C034C1340134C33403340234C234B2
:1002A000C63406340734C7340534C534C434043482
:1002B000CC340C340D34CD340F34CF34CE340E3432
:1002C0000A34CA34CB340B34C93409340834C83442
:1002D000D83418341934D9341B34DB34DA341A34B2
:1002E0001E34DE34DF341F34DD341D341C34DC3482
:1002F0001434D434D5341534D73417341634D634B2
:10030000D23412341334D3341134D134D0341034C1
:10031000F03430343134F1343334F334F2343234B1
:100320003634F634F7343734F53435343434F43481
:100330003C34FC34FD343D34FF343F343E34FE3431
:10034000FA343A343B34FB343934F934F834383441
:100350002834E834E9342934EB342B342A34EA34B1
:10036000EE342E342F34EF342D34ED34EC342C3481
:10037000E43424342534E5342734E734E6342634B1
:100380002234E234E3342334E13421342034E034C1
:10039000A03460346134A1346334A334A2346234B1
:1003A0006634A634A7346734A53465346434A43481
:1003B0006C34AC34AD346D34AF346F346E34AE3431
:1003C000AA346A346B34AB346934A934A834683441
:1003D0007834B834B9347934BB347B347A34BA34B1
:1003E000BE347E347F34BF347D34BD34BC347C3481
:1003F000B43474347534B5347734B734B6347634B1
:100400007234B234B3347334B13471347034B034C0
:1004100050349034913451349334533452349234B0
:100420009634563457349734553495349434543480
:100430009C345C345D349D345F349F349E345E3430
:100440005A349A349B345B34993459345834983440
:1004500088344834493489344B348B348A344A34B0
:100460004E348E348F344F348D344D344C348C3480
:1004700044348434853445348734473446348634B0
:1004800082344234433483344134813480344034C0
:100490000A108A140A11820728347E343134343425
:1004A0006634A434A0343E3420342434F734FF348A
:1004B0002034A134F334E134FE346234E93470344E
:1004C000E034A9342834F834223483168C10831293
:1004D0000317CA080319732A031391018C1083169A
:1004E0008C1483120317031308004808023C031DF1
:1004F000872AC908031D872ACA08031D872A4718A7
:10050000872A02308316A10283124714882A4710D3
:10051000FF30CA00C900C8010317CA0103136522CE
:100520008C108A110A1223288C1E942A1808C600DF
:100530001A08F800C61C9E2A1812181608004A0845
:1005400003174A06CB004B0803133A20F80049086A
:100550007806CA0003174B0803134121F800C900AD
:100560000800942278080317C90003134718F52AD6
:10057000C808031DCA2AFF30CA00C900031749086A
:1005800083160313A0008312C80A8316A101A301D6
:10059000EA2A8312480BD42A031749088316031347
:1005A000A2008312C80AEB2A4808023C031DEB2A6A
:1005B000831621083F3C0318DF2A3F30A100A430F6
:1005C00021078400831383120317490880008316D0
:1005D0000313A10A831203174908CA0003139F22B9
:1005E00001300317CA00031365228C128A110A1204
:1005F0002328031743080739F700430CF800F80CC9
:10060000F80C1F30F8057808450784008313461856
:100610008317F801F80AF70A0E2BF80DF70B0D2BCC
:10062000C4080319162B78088004192BF8097808D8
:10063000800503130800031732088400831333185E
:1006400083170008B400C300C401C601C501031329
:10065000F9220130031732078400831333188317FC
:100660000008B400C300C401C601C5010313F92288
:1006700002300317320784008313331883170008EE
:10068000B400C300C401C601C5010313F9228A15D1
:100690000A161F2D03300317C002031C592B4030CC
:1006A0008400831700080319592B572B572B800BF5
:1006B000562B031308008316091083120910023009
:1006C0000317B300EF30C00003134A230317B30B23
:1006D000622B8316031309147730F700F70B6E2B88
:1006E000712B091483120317B201031309187B2B12
:1006F0000317B20A031305300317B3005430C000C8
:1007000003134A230317B30B7E2BB20803198C2B58
:100710000130F8008E2B8E2B0030F80003130800F8
:100720000317B3013308073C031CBA2B83160313CA
:100730000910831209109C2B9D2B00000310031736
:10074000B20C031CAA2B831603130910831209147D
:10075000AF2B031783160313091083120910AD3052
:10076000F700F70BB12B8316091083120914031736
:10077000B30A922BAD30F700F70BBC2B0130F80019
:10078000031308000317B4013408073C031CE72BCC
:1007900083160313091083120910CE2BCF2B0000F0
:1007A000831609141830F700F70BD42BD72B091434
:1007B00083120918DD2B0310DE2B03140317B50C6D
:1007C000C730F700F70BE22BE52BB40AC42B350832
:1007D000F80003138A150A1237288E30F700031722
:1007E0003308F8003208F900FA01F808031D022C5A
:1007F0007908F800F9010830F702F808031D022C07
:10080000F7010A2C0310F81B092CF90DF80DF7035A
:10081000022CF81303130800031736080319D22C0F
:10082000C2003A080319D22CC202031C1C2C7F30D0
:10083000C2070318D22C222C8130C202031CD22CF6
:100840000319D22C4208F700F801F901FA01C1019D
:100850003708C000C0173808BF003908BE0019307B
:10086000C2003D08BE020318452C0130BF02031828
:10087000452CC0020318452CC1020318452CC10A9F
:10088000C00ABF0A3D08BE07772C3C08BF02031808
:10089000602C0130C0020318602CC1020318602CC8
:1008A000C10AC00A3C08BF073D08BE07031C772CDD
:1008B000BF0A031D772CC00A031D772CC10A772CB1
:1008C0003B088038C0020318762C0130C10203189F
:1008D000762CC10A3B088038C0073C08BF07031CC0
:1008E000542CC00A031D542CC10A542C7A14C20B78
:1008F0007A2C852C0310BE0DBF0DC00DC10D031049
:10090000FA0DF90DF80DC30D312C431C8D2C03107D
:10091000F80CF90CFA0CC30C902CF7030319D22C29
:10092000C31BB92C0310BE0DBF0DC00DC10D3D087A
:10093000BE020318A52C0130BF020318A52CC0026B
:100940000318A52CC102031CC82C3C08BF020318C5
:10095000B02C0130C0020318B02CC102031CC82CFB
:100960003B088038C0020318B92C0130C102031CB7
:10097000C82CFA0A031DC82CF90A031DC82CF80A52
:10098000031DC82CF70A0319D22CF80CF90CFA0C29
:100990003708C2003B08C206C21FD02CF817D62C5D
:1009A000F813D62CF701F801F901FA010313080036
:1009B000031732080319492DBA0036080319492DC7
:1009C000BA070318EA2C7F30BA02031C492D031919
:1009D000492DEE2C8130BA070318492D3A08F7004B
:1009E000F801F901FA013308BE00BE173408BD0052
:1009F0003508BC001830BA00BB013C1C172D390863
:100A0000FA07031C092DF90A031D092DF80A031919
:100A1000BB173808F907031C102DF80A0319BB1778
:100A20003708B400B4173408F8070318BB17BB0D18
:100A3000F80CF90CFA0CBE0CBD0CBC0C0310BA0B74
:100A4000FC2C0130F7070318492DF81B2E2DBE0D85
:100A5000FA0DF90DF80DF7030319492DBE1F3F2DAF
:100A6000FA0A031D3F2DF90A031D3F2DF80A031D45
:100A70003F2DF80CF90CFA0CF70A0319492D33082D
:100A8000BB003708BB06BB1F472DF8174D2DF813C9
:100A90004D2DF701F801F901FA0103130800803028
:100AA000831C552D0317BB0603130317C001C10197
:100AB0003708BF003B08BF0636080319432EBE00A7
:100AC000F7003A0803194C2EBE020319E82D031C47
:100AD000A62D3B08C400C4173C08C3003D08C20053
:100AE000C1010310C40CC30CC20CC10CBE0B702D91
:100AF000BF1F7D2D4014602E40103E10401639302F
:100B000084008317752E4012BF1B902D3E1C9B2D19
:100B1000C40CC30CC20CC10CF70A03195B2E9B2D2D
:100B2000C41B9E2D0310C10DC20DC30DC40DF703D0
:100B300003195B2E902D4017082E40133708BF0075
:100B4000BF1FA42DC417542EC413542E3A08BE0040
:100B5000F7003608BE023708C400C4173808C300BF
:100B60003908C200C1010310C40CC30CC20CC10C73
:100B7000BE0BB22DBF1FBF2DC014602EC0103E1083
:100B8000C0163D3084008317752EC012BF1BD22DB6
:100B90003E1CDD2DC40CC30CC20CC10CF70A03199A
:100BA0005B2EDD2DC41BE02D0310C10DC20DC30D46
:100BB000C40DF70303195B2ED22DC017082EC013E6
:100BC0003B08BF00BF1FE62DC417542EC413542E7C
:100BD0003B08C400C4173C08C3003D08C200BF1F47
:100BE000F52DC4134015602E4011C1013E1039305F
:100BF00084008317752EBF1B1E2E3708BF003E1CB6
:100C0000082EC40CC30CC20CC10CF70A03195B2ECE
:100C1000C11F192EC20A031D192EC30A031D192E46
:100C2000C40A031D192EC40CC30CC20CF70A031905
:100C30005B2E401B9D2DC01BDF2D3D2E8030C4063A
:100C4000C41F262E602E3B08BF00332E3708BF007E
:100C5000C408031D332EC308031D332EC208031D11
:100C6000332EF701542EC41B3D2E0310C10DC20DAF
:100C7000C30DC40DF70B332E5B2EBF1F412EC417BF
:100C8000542EC413542E3A08F7003B08C4003C0805
:100C9000C3003D08C200542E3608F7003708C400D0
:100CA0003808C3003908C2004408F8004308F900B6
:100CB0004208FA00932EF701F801F901FA01932E88
:100CC000C101C209C309C409C109C10A031D6E2EAD
:100CD000C20A031D6E2EC30A0319C40A40187C2DD4
:100CE000C018BE2D4019F42D232E0008C207031C86
:100CF0007F2EC30A031D7F2EC40A03193E148403EA
:100D00000008C307031C872EC40A03193E1484037A
:100D10000008801F803AC40703183E14401A832D30
:100D2000C01AC52DFB2D0313080003173708BE009A
:100D30003B08BE06BE1FA12E03110310B71B0314F0
:100D4000D42E3708BE003A08BF003608BF02031988
:100D5000AF2EBE1FD42E0308013A8300D42E3B08C9
:100D6000BF003708BF020319BB2EBE1FD42E0308D5
:100D7000013A8300D42E3C08BF003808BF02031993
:100D8000C72EBE1FD42E0308013A8300D42E3D087F
:100D9000BF003908BF020319D32EBE1FD42E03088B
:100DA000013A8300D42E0310031308008E30F7009D
:100DB00003173208F7023308F9003408F800F9176E
:100DC000F7080319EE2E0310F908031DEA2EF808A0
:100DD0000319EE2EF90CF80CF70BE32EB31FF52ECA
:100DE000F809F909F80A0319F90A031308000317A7
:100DF0003408F80133020318002F3308F7000C2FD2
:100E0000F7010830B500B30DF70D34087702031869
:100E1000F700F80DB50B032F03130800F801F901D3
:100E2000F701FA0103173708031D192F36080319B4
:100E3000332F1030B8000310B40DB50DF70DFA0DB7
:100E400037087A02031D262F36087702031C2F2F3E
:100E50003608F702031CFA033708FA020314F80DE8
:100E6000F90DB80B1B2F031308000317C10141082C
:100E7000073C031C8D2FBE1F522F3F088400831395
:100E8000401883170008C200C3000130C400C60127
:100E9000C5010313F9221030F700F70B4D2F0000A6
:100EA000642F03173F08840083134018831700083A
:100EB000C200C300C401C601C5010313F9221030EA
:100EC000F700F70B612F0000013003173F07840084
:100ED0008313401883170008C200C3000130C40008
:100EE000C601C5010313F9223130F700F70B762F45
:100EF000792F013003173F078400831340188317AD
:100F00000008C200C300C401C601C5010313F922D1
:100F100003100317BE0DC10A372F03138A150A12D7
:100F2000302E3F308400831700080319A42F0630A9
:100F3000F800F701F70B9A2FF80B992F7B30F70089
:100F4000F70BA02F800B972F08008C1EA92F94223F
:100F5000A52F1A08CB124B0883168700831287121D
:100F600083168C1683120800CB124B088316870059
:100F700083128712A5272030F80006389200F93036
:100F800083169200C03083128B048A150A16852DB1
:100F9000F701F8010317330803103418F707F70CAB
:100FA000F80CB418F707F70CF80C3419F707F70C1E
:100FB000F80CB419F707F70CF80C341AF707F70C0C
:100FC000F80CB41AF707F70CF80C341BF707F70CFA
:0E0FD000F80CB41BF707F70CF80C031308001D
:101000008A115B238A15F80803191428CC300317BA
:10101000B2008A11031390238A1544300317B200DB
:101020008A11031390238A158A115B238A15F80805
:1010300003194A28CC300317B2008A1103139023F6
:101040008A15BE300317B2008A11031390238A1544
:10105000A8012808073C031C482867302807031705
:10106000B200B3010318B30A8A110313C22B8A1505
:10107000031732088400831333188317780880001D
:101080001030F700F70B422800000313A80A2928A4
:10109000C7144B28C710C71CD62D68080F3C03186F
:1010A000A228E809E7090130E7076808FA0067089D
:1010B0000317B2007A08B3008A110313ED238A15CF
:1010C0007A08F2007908F1007808F0007708EF005C
:1010D00072080317B9007108B8007008B70003134D
:1010E0006F080317B600BD01BC01BB018330BA0015
:1010F0008A1103130C248A157A08F2007908F1008A
:101100007808F0007708EF0072080317B50071083F
:10111000B4007008B30003136F080317B200B901DD
:10112000B8018030B7007F30B6008A110313D8248D
:101130008A157A08F2007908F1007808F00077083B
:10114000EF00D1286808FA0067080317B2007A0890
:10115000B3008A110313ED238A157A08F200790887
:10116000F1007808F0007708EF0072080317B90063
:101170007108B8007008B70003136F080317B600B2
:10118000BD01BC01BB018330BA008A1103130C24DA
:101190008A157A08F2007908F1007808F0007708DB
:1011A000EF00831072080317B9007108B8007008C7
:1011B000B70003136F080317B6009A30BD009930CB
:1011C000BC001930BB007E30BA008A1103134F25D2
:1011D0008A157A080317B5007908B4007808B300B7
:1011E0007708B200031334080317B9000313330858
:1011F0000317B800031332080317B70003133108AD
:101200000317B600BD01BC012030BB008230BA001C
:101210008A1103130C248A15831003173508B900AB
:101220003408B8003308B7003208B6007A08BD00A9
:101230007908BC007808BB007708BA008A1103134C
:101240004F258A157A08F2007908F1007808F00035
:101250007708EF000317B901B801B701B6017208AA
:10126000BD007108BC007008BB0003136F080317B2
:10127000BA008A11031395268A1503184129031D04
:1012800043294711442947154719FC2BCD30031733
:10129000B900CC30B8004C30B7007B30B6007208D3
:1012A000BD007108BC007008BB0003136F08031772
:1012B000BA008A11031395268A1503186129031DA4
:1012C000F12972080317B9007108B8007008B70057
:1012D00003136F080317B600BD01BC012030BB002B
:1012E0008230BA008A11031395268A15031CF1294E
:1012F0000B30BD00BE0072080317B5007108B400C2
:101300007008B30003136F080317B2008A110313A8
:10131000D6268A1578080317B3000A30B4008A115C
:101320000313F7268A157708BF0072080317B50064
:101330007108B4007008B30003136F080317B200FC
:10134000B901B8012030B7008230B6008A1103130A
:10135000D8248A157A080317B5007908B4007808EC
:10136000B3007708B2008A110313D6268A157908CC
:101370000317B3007808B2003308B5003208B40090
:10138000B7010A30B6008A1103130E278A157708B1
:10139000C0002A1472080317B5007108B400700861
:1013A000B30003136F080317B200B901B80120306E
:1013B000B7008230B6008A110313D8248A157A0840
:1013C0000317B5007908B4007808B3007708B200B5
:1013D0008A110313D6268A157908CD007808CC0027
:1013E000FB2B0317B901B8012030B7008230B600DB
:1013F0007208BD007108BC007008BB0003136F08C1
:101400000317BA008A11031395268A1503180A2AAE
:10141000031DBD2A72080317B9007108B8007008CF
:10142000B70003136F080317B600BD01BC014830B5
:10143000BB008530BA008A11031395268A15031C58
:10144000BD2A0B30BD0072080317B9007108B8003F
:101450007008B70003136F080317B600BD01BC0185
:101460002030BB008230BA008A1103130C248A1585
:101470007A080317B5007908B4007808B300770834
:10148000B2008A110313D6268A157808BE007208A6
:101490000317B5007108B4007008B30003136F0898
:1014A0000317B2008A110313D6268A15780803178A
:1014B000B3000A30B4008A110313F7268A1577089F
:1014C000BF0072080317B5007108B4007008B300BC
:1014D00003136F080317B200B901B8012030B70039
:1014E0008230B6008A110313D8248A157A080317AC
:1014F000B5007908B4007808B3007708B2008A1103
:101500000313D6268A1579080317B3007808B200AA
:101510003308B5003208B400B7010A30B6008A11AA
:1015200003130E278A157708C0002A1472080317C0
:10153000B5007108B4007008B30003136F080317F7
:10154000B200B901B8012030B7008230B6008A116C
:101550000313D8248A157A080317B5007908B40054
:101560007808B3007708B2008A110313D6268A15CB
:101570007908CD007808CC00FB2B0317B901B8011E
:101580004830B7008530B6007208BD007108BC0055
:101590007008BB0003136F080317BA008A11031306
:1015A00095268A150318D62A031DB62B7208031731
:1015B000B9007108B8007008B70003136F0803176B
:1015C000B600BD01BC017A30BB008530BA008A117B
:1015D000031395268A150318EF2A031DB62B7208EC
:1015E0000317B9007108B8007008B70003136F083B
:1015F0000317B600BD01BC014830BB008530BA00FE
:101600008A1103130C248A157A080317B500790888
:10161000B4007808B3007708B2008A110313D62605
:101620008A157808BD0072080317B9007108B80060
:101630007008B70003136F080317B600BD01BC01A3
:101640002030BB008230BA008A1103130C248A15A3
:101650007A080317B5007908B4007808B300770852
:10166000B2008A110313D6268A1578080317B3002F
:101670000A30B4008A110313F7268A157708BE00D2
:1016800072080317B5007108B4007008B3000313A3
:101690006F080317B2008A110313D6268A1578083B
:1016A0000317B3000A30B4008A110313F7268A1512
:1016B0007708BF0072080317B5007108B4007008FE
:1016C000B30003136F080317B200B901B80120304B
:1016D000B7008230B6008A110313D8248A157A081D
:1016E0000317B5007908B4007808B3007708B20092
:1016F0008A110313D6268A1579080317B3007808D0
:10170000B2003308B5003208B400B7010A30B600A1
:101710008A1103130E278A157708C0002A1472084D
:101720000317B5007108B4007008B30003136F0805
:101730000317B200B901B8012030B7008230B600FB
:101740008A110313D8248A157A080317B50079087B
:10175000B4007808B3007708B2008A110313D626C4
:101760008A157908CD007808CC00FB2B0317B90146
:10177000B8017A30B7008530B6007208BD00710834
:10178000BC007008BB0003136F080317BA008A116E
:10179000031395268A15031CDA2B0D30BD000E307D
:1017A000BE00BF001130C0002A140430CD00EC3060
:1017B000CC00FB2B72080317B9007108B800700841
:1017C000B70003136F080317B600CD30BD00CC304F
:1017D000BC004C30BB007B30BA008A110313952645
:1017E0008A15031CFB2B0B30BD00BE00BF00C001DF
:1017F0002A10CD01CC01D52D0317B901B801A030B5
:10180000B7008230B6007208BD007108BC007008D5
:10181000BB0003136F080317BA008A110313952640
:101820008A15031CC12C72080317B9007108B8008F
:101830007008B70003136F080317B600CD30BD0062
:10184000CC30BC00BB007B30BA008A110313952654
:101850008A1503182D2C031DC12C72080317B5001F
:101860007108B4007008B30003136F080317B200C7
:10187000B901B801A030B7008230B6008A11031355
:10188000D8248A157A080317B5007908B4007808B7
:10189000B3007708B2008A110313D6268A15790897
:1018A0000317B3007808B2003308B5003208B4005B
:1018B000B7010A30B6008A1103130E278A1577087C
:1018C000C00072080317B5007108B4007008B300B7
:1018D00003136F080317B200B901B8018030B700D5
:1018E0007F30B6008A110313D8248A157A080317AB
:1018F000B5007908B4007808B3007708B2008A11FF
:101900000313D6268A1579080317B3007808B200A6
:101910003308B5003208B400B7010A30B6008A11A6
:1019200003130E278A157708BF000A30BE000B305C
:10193000BD002A1472080317B5007108B4007008BE
:10194000B30003136F080317B200B901B8012030C8
:10195000B7008230B6008A110313D8248A157A089A
:101960000317B5007908B4007808B3007708B2000F
:101970008A110313D6268A157908CD007808CC0081
:10198000D52D72080317B9007108B8007008B700A8
:1019900003136F080317B600BD01BC01A030BB00E4
:1019A0008230BA008A11031395268A150318DA2C9F
:1019B000031DB22D0317B901B801DC30B700843024
:1019C000B6007208BD007108BC007008BB000313AC
:1019D0006F080317BA008A11031395268A15031896
:1019E000F32C031DB22D72080317B5007108B40063
:1019F0007008B30003136F080317B200B901B801F0
:101A0000A030B7008230B6008A110313D8248A159B
:101A10007A080317B5007908B4007808B30077088E
:101A2000B2008A110313D6268A1579080317B3006A
:101A30007808B2003308B5003208B400B7010A30A4
:101A4000B6008A1103130E278A157708C0007208A2
:101A50000317B5007108B4007008B30003136F08D2
:101A60000317B200B901B8018030B7007F30B6006B
:101A70008A110313D8248A157A080317B500790848
:101A8000B4007808B3007708B2008A110313D62691
:101A90008A1579080317B3007808B2003308B50037
:101AA0003208B400B7010A30B6008A1103130E27BA
:101AB0008A157708BF0072080317B5007108B400D3
:101AC0007008B30003136F080317B200B901B8011F
:101AD0008030B7007F30B6008A110313D8248A15EE
:101AE0007A080317B5007908B4007808B3007708BE
:101AF000B2008A110313D6268A1578080317B3009B
:101B00000A30B4008A110313F7268A157808BE003C
:101B10000A30BD002A1472080317B5007108B4001A
:101B20007008B30003136F080317B200B901B801BE
:101B30002030B7008230B6008A110313D8248A15EA
:101B40007A080317B5007908B4007808B30077085D
:101B5000B2008A110313D6268A157908CD007808B9
:101B6000CC00D52D72080317B9007108B8007008B1
:101B7000B70003136F080317B600BD01BC01DC30CA
:101B8000BB008430BA008A11031395268A15031C02
:101B9000D52D0D30BD000E30BE00BF001230C0008C
:101BA0002A14FF30CD00C830CC00E22D0D30BD002E
:101BB0000E30BE00BF000530C0002A142730CD0013
:101BC0000E30CC000800013003173402BB00BC010A
:101BD00034083C0203180B2E37303C07BD0001309F
:101BE000BE000318BE0A3B08320784008313331873
:101BF000831700088A11031348228A15F800031777
:101C00003D08840083133E188317780880003B0842
:101C1000BB03BC0AE82D03132A1C122E2030031725
:101C2000B8060313AA1F182E20300317B706031394
:101C30000317BC01BC08031D6B2EBB0134083B021B
:101C40000318342E37303B07840083170008BD008B
:101C5000BE003608C0003508BF008A110313352FB7
:101C60008A150317BB0A1E2E3608BE003508BD00B4
:101C700002303D07840083133E1883170008BF001D
:101C8000C3000130C400C601C5018A110313F92243
:101C90008A1514300317BF008A11031391278A1580
:101CA000023003173D07840083133E188317000892
:101CB000BF00C300C401C601C5018A110313F92284
:101CC0008A1501300317BF008A11031391278A1563
:101CD0000317BC0A1A2E031308004718732E00308E
:101CE000F8007E2E7B2E8316A21F7A2E2408A300D6
:101CF0000130A100831247100130F8008A150A163E
:101D0000912D03173F0803130C1E842E9900A70181
:101D10008B1BA7178B1303173F08CA008A110313E5
:101D20009F228A15A71B8B17AD30F700F70B962E55
:101D30000800FF30CA00C900471083168C128312B6
:101D4000CB124B08831687008312871602300317C5
:101D5000BF00B530C0008A1103134A238A15031748
:101D6000BF0BA92E3D08BF000313812603173E08B1
:101D7000BF000313812608004A080317BE0003139F
:101D800049080317BD003E08BF000313812603174F
:101D90003D08BF00031381268316981CCD2E023008
:101DA00083120317BF00B530C0008A1103134A2302
:101DB0008A150317BF0BD32E8A110313A5278A1583
:101DC000CB124B088316870083128712FF30CA009C
:101DD000C9000800031735088038B8003608B90074
:101DE0003408BD003808BE000313992603173708CE
:101DF000BF0003138126BC2608008E30F7000317AE
:101E00003708F8003608F900FA01B71F0C2FF80957
:101E1000F909F90A0319F80AF808031D192F7908B6
:101E2000F800F9010830F702F808031D192FF7012F
:101E3000222F0310F81B202FF90DF80DF703192F8F
:101E4000B71FF813031308005808643C031DB22F92
:101E5000D908031DB22FCF1B382FCF08031D342FF5
:101E60004E087D3C0318382FCF017D30CE00482F1F
:101E7000CF1F482F4F08FF3C031C482F031D442F42
:101E80004E08C83C031C482FFF30CF00C930CE009D
:101E90004E08B900D11B572FD108031D532F5008EE
:101EA0007D3C0318572FD1017D30D000672FD11F03
:101EB000672F5108FF3C031C672F031D632F500839
:101EC000C83C031C672FFF30D100C930D000500838
:101ED000BA00D31B752FD308031D722F5208323C52
:101EE0000318752FD3013230D20053080317B700FF
:101EF000031352080317B6000313FD267A08B8002F
:101F00007908B7007808B6007708B500D51B8F2F81
:101F1000D508031D9B2F5408633C031C9B2FD51F22
:101F20009D2F5508FF3C031C9D2F031D9B2F54081C
:101F30009C3C031C9D2FD501D40155080317B70005
:101F4000031354080317B6000313FD267A08B400E0
:101F50007908B3007808B2007708B1002A15D901D2
:101F6000D801B42FD901D8018A150A16682F881B09
:101F7000C72FAA19C72F0A300317BF008A110313EE
:101F800091278A15881BC62FAA1DAA15CF2F881F37
:101F9000CF2FAA1DCF2F0130B000AF00AA118A1594
:101FA0000A169E2F0317330834068039B600B31F74
:101FB000DB2FB309B30AB41FDF2FB409B40A340806
:101FC000F80133020318E72F3308F700F32FF70166
:101FD0000830B500B30DF70D340877020318F70089
:101FE000F80DB50BEA2FB61FF72FF809F80A0313FF
:021FF0000800E7
:10200000A8012808023C031C45283D30280784000D
:102010008313280803178D0083168C130C14831266
:102020000C0880000313A808031D172843283D301F
:102030002807840083130008093C031843283D3017
:1020400028078400831380013D3028078400831310
:1020500000080317B20003130B08F7008B132808BE
:1020600003178D0032088C0083168C130C15553025
:102070008D00AA308D008C148C183C280C11770828
:10208000831203138B04A80A01283D080A3C031D90
:1020900076283E080317B3000A30B4000A1203136F
:1020A000C8270A163F0878070317B301B2000A12BF
:1020B0000313ED230A167A080317B5007908B40054
:1020C0007808B3007708B2000A120313D6260A165E
:1020D0007808B90039080317B300FF30B4000A12BA
:1020E0000313C8270A167808B900A7283D08031764
:1020F000B3006430B4000A120313C8270A16780824
:102100000317B20003133E080317B3000A30B400EC
:102110000A120313C8270A16780803173207031395
:102120003F070317B301B2000A120313ED230A1687
:102130007A080317B5007908B4007808B300770867
:10214000B2000A120313D6260A167808B900FA015B
:102150003908B91BFA03CE007A08CF00A801280875
:10216000023C031CFB283D30280784008313033006
:1021700028070317B40034088D0083168C130C1441
:1021800083120C0880000313A808031DC828F9282F
:102190003D302807840083130008093C0318F92800
:1021A0003D3028078400831380010330280703177C
:1021B000B2003D300313280784008313000803177F
:1021C000B30003130B08F7008B13031732088D00BD
:1021D00033088C0083168C130C1555308D00AA30F3
:1021E0008D008C148C18F2280C11770883120313BD
:1021F0008B04A80AAF283D080A3C031D2C293E0881
:102200000317B3000A30B4000A120313C8270A16D2
:102210003F0878070317B301B2000A120313ED2336
:102220000A167A080317B5007908B4007808B300D5
:102230007708B2000A120313D6260A167808BA00E5
:102240003A080317B300FF30B4000A120313C8277B
:102250000A167808BA005D293D080317B3006430F8
:10226000B4000A120313C8270A1678080317B2002D
:1022700003133E080317B3000A30B4000A12031315
:10228000C8270A1678080317320703133F070317F6
:10229000B301B2000A120313ED230A167A080317DA
:1022A000B5007908B4007808B3007708B2000A12C4
:1022B0000313D6260A167808BA00FA013A08BA1BA0
:1022C000FA03D0007A08D100063003178D00831678
:1022D0008C130C1483120C08B301B2000A120313FE
:1022E000ED230A167A08B8007908B7007808B60016
:1022F0007708B50038080317B5000313370803172C
:10230000B400031336080317B3000313350803178B
:10231000B2000A120313D6260A167908D3007808E9
:10232000D200A8012808023C031CDE293D30280702
:1023300084008313073028070317B40034088D0086
:1023400083168C130C1483120C0880000313A80846
:10235000031DAB29DC293D302807840083130008C6
:10236000093C0318DC293D302807840083138001D1
:10237000073028070317B2003D30031328078400F5
:10238000831300080317B30003130B08F7008B1324
:10239000031732088D0033088C0083168C130C153C
:1023A00055308D00AA308D008C148C18D5290C1155
:1023B0007708831203138B04A80A92293E08031797
:1023C000B3000A30B4000A120313C8270A163F08E4
:1023D00078070317B301B2000A120313ED230A169C
:1023E0007A08B4007908B3007808B2007708B10021
:1023F0003D080A3C031D1D2A34080317B5000313CA
:1024000033080317B400031332080317B300031390
:1024100031080317B200B901B8018030B7007F302E
:10242000B6000A120313D8240A167A08B4007908F1
:10243000B3007808B2007708B10034080317B5007C
:10244000031333080317B400031332080317B30050
:10245000031331080317B2000A120313D6260A1613
:102460007908D5007808D4008A150A168B2D38080B
:102470000317B900031337080317B800031336080E
:102480000317B700031335080317B600BD01BC01DD
:102490002030BB008230BA000A1203130C240A1643
:1024A0007A080317B5007908B4007808B3007708F4
:1024B000B200B701031339080317B600B61BB70300
:1024C0000A128A150313FD260A168A1183107A0848
:1024D0000317B9007908B8007808B7007708B60084
:1024E0003508BD003408BC003308BB003208BA0010
:1024F0000A1203134F250A167A080317B900790840
:10250000B8007808B7007708B6007208BD007108F7
:10251000BC007008BB0003136F080317BA000A124F
:10252000031395260A16031C972A4514F52A380822
:102530000317B900031337080317B800031336084D
:102540000317B700031335080317B600BD01BC011C
:102550002030BB008230BA000A1203130C240A1682
:102560007A080317B5007908B4007808B300770833
:10257000B200B701031339080317B600B61BB7033F
:102580000A128A150313FD260A168A1183147A0883
:102590000317B9007908B8007808B7007708B600C3
:1025A0003508BD003408BC003308BB003208BA004F
:1025B0000A1203134F250A1672080317B90071088F
:1025C000B8007008B70003136F080317B6007A0845
:1025D000BD007908BC007808BB007708BA000A1271
:1025E000031395260A160318451038080317B90077
:1025F000031337080317B800031336080317B7008F
:10260000031335080317B600BD01BC012030BB0021
:102610008230BA000A1203130C240A167A08031730
:10262000B5007908B4007808B3007708B200B701A4
:1026300003133A080317B600B61BB7030A128A152C
:102640000313FD260A168A1183147A080317B900AA
:102650007908B8007808B7007708B6003508BD00DB
:102660003408BC003308BB003208BA000A12031356
:102670004F250A1672080317B9007108B8007008D0
:10268000B70003136F080317B6007A08BD00790876
:10269000BC007808BB007708BA000A12031395261D
:1026A0000A16031C552BC514B32B38080317B900A1
:1026B000031337080317B800031336080317B700CE
:1026C000031335080317B600BD01BC012030BB0061
:1026D0008230BA000A1203130C240A167A08031770
:1026E000B5007908B4007808B3007708B200B701E4
:1026F00003133A080317B600B61BB7030A128A156C
:102700000313FD260A168A1183107A080317B900ED
:102710007908B8007808B7007708B6003508BD001A
:102720003408BC003308BB003208BA000A12031395
:102730004F250A167A080317B9007908B8007808F7
:10274000B7007708B6007208BD007108BC007008B9
:10275000BB0003136F080317BA000A120313952670
:102760000A160318C5100030451801300317B300CE
:1027700000300313C5180130031733070313AE00ED
:10278000881AD42B081FD42B2A1AD42B05300317F0
:10279000BF000A12031391270A16881AD32B081FA9
:1027A000D32B2A1E2A16DC2B881EDC2B081FDC2BC1
:1027B0002A1EDC2BAA162A12C71C132CAE080319DA
:1027C000F52BAA1AF52BC71CF52B08143B08003C67
:1027D0000318EC2BBB01ED2BBB0A3B08003C031894
:1027E000F32BAA17F42BAA13122CAE0803190C2CE6
:1027F000AA1E0C2CC71C0C2C08103B08093C031803
:10280000032CBB010B2CBB0A3B08043C03180A2C0D
:10281000AA170B2CAA13122CAE08031D122CAA12F5
:10282000AA130810162CAA12AA1308148A150A163D
:102830009B2FB91B942C39080317B3006430B400E4
:102840000A120313F7260A167808A9000B08F700E6
:102850008B1303178D010313290803178C008316AC
:102860008C130C1555308D00AA308D008C148C18EB
:10287000372C0C117708831203138B0439080317C4
:10288000B3000A30B4000A128A150313D2270A16BD
:102890008A1178080317B3000A30B4000A128A15A7
:1028A0000313D2270A168A117708A9000B08F7002C
:1028B0008B13013003178D000313290803178C00B5
:1028C00083168C130C1555308D00AA308D008C1496
:1028D0008C18682C0C117708831203138B043908A9
:1028E0000317B3000A30B4000A120313F7260A16BE
:1028F0007708A9000B08F7008B13023003178D002F
:102900000313290803178C0083168C130C155530FC
:102910008D00AA308D008C148C188C2C0C1177082B
:10292000831203138B040C2D0A30A9000B08F70047
:102930008B1303178D010313290803178C008316CB
:102940008C130C1555308D00AA308D008C148C180A
:10295000A72C0C117708831203138B043908031773
:10296000B300FF30B4000A120313C8270A16780810
:102970000317B3000A30B4000A128A150313D227D2
:102980000A168A117808A9000B08F7008B1301308A
:1029900003178D000313290803178C0083168C136B
:1029A0000C1555308D00AA308D008C148C18D62C47
:1029B0000C117708831203138B0439080317B30033
:1029C000FF30B4000A120313C8270A167808031749
:1029D000B3000A30B4000A128A150313D2270A166C
:1029E0008A117708A9000B08F7008B130230031730
:1029F0008D000313290803178C0083168C130C1504
:102A000055308D00AA308D008C148C18052D0C11BA
:102A10007708831203138B04BA1B882D3A08031717
:102A2000B3006430B4000A120313F7260A167808BC
:102A3000A9000B08F7008B13033003178D00031355
:102A4000290803178C0083168C130C1555308D0044
:102A5000AA308D008C148C182B2D0C117708831242
:102A600003138B043A080317B3000A30B4000A12A8
:102A70008A150313D2270A168A1178080317B300A0
:102A80000A30B4000A128A150313D2270A168A11D3
:102A90007708A9000B08F7008B13043003178D008B
:102AA0000313290803178C0083168C130C1555305B
:102AB0008D00AA308D008C148C185C2D0C117708B9
:102AC000831203138B043A080317B3000A30B400CF
:102AD0000A120313F7260A167708A9000B08F70055
:102AE0008B13053003178D000313290803178C007F
:102AF00083168C130C1555308D00AA308D008C1464
:102B00008C18802D0C117708831203138B04012E6F
:102B10000A30A9000B08F7008B13033003178D0050
:102B20000313290803178C0083168C130C155530DA
:102B30008D00AA308D008C148C189C2D0C117708F8
:102B4000831203138B043A080317B300FF30B40059
:102B50000A120313C8270A1678080317B3000A30AD
:102B6000B4000A128A150313D2270A168A117808AC
:102B7000A9000B08F7008B13043003178D00031313
:102B8000290803178C0083168C130C1555308D0003
:102B9000AA308D008C148C18CB2D0C117708831261
:102BA00003138B043A080317B300FF30B4000A1272
:102BB0000313C8270A1678080317B3000A30B400B5
:102BC0000A128A150313D2270A168A117708A90058
:102BD0000B08F7008B13053003178D00031329082A
:102BE00003178C0083168C130C1555308D00AA30FA
:102BF0008D008C148C18FA2D0C1177088312031396
:102C00008B0438080317B500031337080317B40003
:102C1000031336080317B300031335080317B20074
:102C20000A120313D6260A1678080317B2000313F4
:102C30000B08F7008B13063003178D0032088C0049
:102C400083168C130C1555308D00AA308D008C1412
:102C50008C18282E0C117708831203138B0403178A
:102C6000B901B801B701B601031334080317BD0059
:102C7000031333080317BC00031332080317BB0008
:102C8000031331080317BA000A12031395260A1614
:102C900003184C2E031DD52EA9010B08F7008B132A
:102CA000073003178D000313290803178C008316C0
:102CB0008C130C1555308D00AA308D008C148C1897
:102CC0005F2E0C117708831203138B04340803174B
:102CD000B500031333080317B400031332080317B6
:102CE000B300031331080317B2000A120313D626E8
:102CF0000A1678080317B3000A30B4000A12031347
:102D0000F7260A167808A9000B08F7008B1308307D
:102D100003178D000313290803178C0083168C13E7
:102D20000C1555308D00AA308D008C148C18962E01
:102D30000C117708831203138B0434080317B500B2
:102D4000031333080317B400031332080317B30047
:102D5000031331080317B2000A120313D6260A160A
:102D600078080317B3000A30B4000A120313F726D9
:102D70000A167708A9000B08F7008B130930031710
:102D80008D000313290803178C0083168C130C1570
:102D900055308D00AA308D008C148C18CD2E0C115E
:102DA0007708831203138B04842F0A30A9000B08C1
:102DB000F7008B13073003178D000313290803173F
:102DC0008C0083168C130C1555308D00AA308D00A5
:102DD0008C148C18E92E0C117708831203138B04C2
:102DE00034080317B500031333080317B4000313A3
:102DF00032080317B300031331080317B200B901F7
:102E0000B8018030B7007F30B6000A120313D8240F
:102E10000A167A080317B5007908B4007808B300D9
:102E20007708B2000A120313D6260A167808031789
:102E3000B3000A30B4000A120313F7260A16780802
:102E4000A9000B08F7008B13083003178D0003133C
:102E5000290803178C0083168C130C1555308D0030
:102E6000AA308D008C148C18332F0C117708831224
:102E700003138B0434080317B50003133308031737
:102E8000B400031332080317B30003133108031708
:102E9000B200B901B8018030B7007F30B6000A1225
:102EA0000313D8240A167A080317B5007908B4006A
:102EB0007808B3007708B2000A120313D6260A1660
:102EC00078080317B3000A30B4000A120313F72678
:102ED0000A167708A9000B08F7008B1309300317AF
:102EE0008D000313290803178C0083168C130C150F
:102EF00055308D00AA308D008C148C187D2F0C114C
:0E2F00007708831203138B048A150A16A32F79
:10300000AA13AA10AE014510C510AA122A1308105F
:103010002F0BA7282A10B91B76281130C1003908B8
:103020000317B3006430B4000A128A110313F726A1
:103030000A168A157808C20039080317B3006430ED
:10304000B4000A128A110313F7260A168A157708A4
:103050000317B301B2000A128A110313ED230A16F3
:103060008A157A08F2007908F1007808F0007708EC
:10307000EF0072080317B5007108B4007008B300C0
:1030800003136F080317B2000A128A110313D6261E
:103090000A168A1578080317B3000A30B4000A121A
:1030A0008A110313F7260A168A157808C3007208D6
:1030B0000317B5007108B4007008B30003136F085C
:1030C0000317B2000A128A110313D6260A168A15AC
:1030D00078080317B3000A30B4000A128A110313E8
:1030E000F7260A168A157708C400A6281130C100F1
:1030F0000A30C20039080317B300FF30B4000A12C7
:103100008A110313C8270A168A1578080317B30013
:103110000A30B4000A120313D2270A167808C30033
:1031200039080317B300FF30B4000A128A110313E1
:10313000C8270A168A1578080317B3000A30B400A6
:103140000A120313D2270A167708C4007E2A2F0812
:10315000023C031D48292A10BA1B17291230C1004E
:103160003A080317B3006430B4000A128A1103133B
:10317000F7260A168A157808C2003A080317B30022
:103180006430B4000A128A110313F7260A168A154E
:1031900077080317B301B2000A128A110313ED2353
:1031A0000A168A157A08F2007908F1007808F0000A
:1031B0007708EF0072080317B5007108B4007008B3
:1031C000B30003136F080317B2000A128A11031326
:1031D000D6260A168A1578080317B3000A30B400F9
:1031E0000A128A110313F7260A168A157808C300F3
:1031F00072080317B5007108B4007008B300031318
:103200006F080317B2000A128A110313D6260A1692
:103210008A1578080317B3000A30B4000A128A111D
:103220000313F7260A168A157708C40047291230B7
:10323000C1000A30C2003A080317B300FF30B400DF
:103240000A128A110313C8270A168A157808031769
:10325000B3000A30B4000A120313D2270A16780802
:10326000C3003A080317B300FF30B4000A128A11F2
:103270000313C8270A168A1578080317B3000A3003
:10328000B4000A120313D2270A167708C4007E2A54
:103290002F08033C031D96292A141330C100143053
:1032A000C20038080317B500031337080317B4002A
:1032B000031336080317B300031335080317B200CE
:1032C0000A128A110313D6260A168A1578080317DC
:1032D000B3000A30B4000A128A110313F7260A1643
:1032E0008A157808C30038080317B5000313370898
:1032F0000317B400031336080317B300031335088C
:103300000317B2000A128A110313D6260A168A1569
:1033100078080317B3000A30B4000A128A110313A5
:10332000F7260A168A157708C4007E2A2F08043C5F
:10333000031D7E2A2A1434080317B9000313330827
:103340000317B800031332080317B700031331083B
:103350000317B600BD01BC01BB01BA010A128A11F4
:10336000031395260A168A15031C292A1530C10055
:103370000A30C20034080317B500031333080317DB
:10338000B400031332080317B30003133108031703
:10339000B200B901B8018030B7007F30B6000A1220
:1033A0008A110313D8240A168A157A080317B50060
:1033B0007908B4007808B3007708B2000A128A11BD
:1033C0000313D6260A168A1578080317B3000A30A5
:1033D000B4000A128A110313F7260A168A15780810
:1033E000C30034080317B500031333080317B400F0
:1033F000031332080317B300031331080317B20095
:10340000B901B8018030B7007F30B6000A128A11C6
:103410000313D8240A168A157A080317B500790809
:10342000B4007808B3007708B2000A128A110313B7
:10343000D6260A168A1578080317B3000A30B40096
:103440000A128A110313F7260A168A157708C40090
:10345000712A1530C1000B30C20034080317B500C3
:10346000031333080317B400031332080317B30020
:10347000031331080317B2000A128A110313D62668
:103480000A168A1578080317B3000A30B4000A1226
:103490008A110313F7260A168A157808C300340820
:1034A0000317B500031333080317B40003133208DE
:1034B0000317B300031331080317B2000A128A116D
:1034C0000313D6260A168A1578080317B3000A30A4
:1034D000B4000A128A110313F7260A168A15770810
:1034E000C4000317B3014130B2000430B400B60188
:1034F0002B30B5000A120313E3250A16081B522BC2
:1035000032300317BF000A128A11031391270A16DB
:103510008A15081B512B32300317BF000A128A117B
:10352000031391270A168A152F0BA22AB91B9F2A6B
:1035300039087C3C03189F2A7D30B900A12A01304C
:10354000B907512B2F08023C031DB22ABA1BAF2A20
:103550003A087C3C0318AF2A7D30BA00B12A01300A
:10356000BA07512B2F08033C031D022B0317B90187
:10357000B8014830B7008430B60003133808031789
:10358000BD00031337080317BC00031336080317E5
:10359000BB00031335080317BA000A128A1103137C
:1035A00095260A168A150318D72A031DDE2AB801A4
:1035B000B7014830B6008430B500012B83103808BD
:1035C0000317B900031337080317B80003133608AD
:1035D0000317B700031335080317B600BD01BC017C
:1035E000BB017F30BA000A128A1103134F250A1655
:1035F0008A157A08B8007908B7007808B600770805
:10360000B500512B2F08043C031D512B0317B901A2
:10361000B8014630B7008530B600031334080317ED
:10362000BD00031333080317BC000313320803174C
:10363000BB00031331080317BA000A128A110313DF
:1036400095260A168A150318272B031D2E2BB40165
:10365000B3014630B2008530B100512B83103408DD
:103660000317B900031333080317B8000313320814
:103670000317B700031331080317B600BD01BC01DF
:10368000BB017F30BA000A128A1103134F250A16B4
:103690008A157A08B4007908B3007808B200770870
:1036A000B1001B2C881A1B2C32300317BF000A12E2
:1036B0008A11031391270A168A15881A1B2C323097
:1036C0000317BF000A128A11031391270A168A15DD
:1036D0002F0B752B3908803A493C031C722BC930DB
:1036E000B900742B0130B9021B2C2F08023C031DBA
:1036F000842B3A08803A493C031C812BC930BA001C
:10370000832B0130BA021B2C2F08033C031DCE2B48
:1037100038080317B900031337080317B800031359
:1037200036080317B700031335080317B600BD01A9
:10373000BC01BB01BA010A128A11031395260A16AD
:103740008A150318A52B031DAA2BB801B701B601D2
:10375000B501CD2B831438080317B90003133708BC
:103760000317B800031336080317B700031335080F
:103770000317B600BD01BC01BB017F30BA000A12BD
:103780008A1103134F250A168A157A08B80079089A
:10379000B7007808B6007708B5001B2C2F08043C4A
:1037A000031D1B2C34080317B90003133308031738
:1037B000B800031332080317B700031331080317C7
:1037C000B600BD01BC01C630BB008530BA000A128C
:1037D0008A11031395260A168A150318F12B031D67
:1037E000F82BB401B301C630B2008530B1001B2CF8
:1037F000831434080317B900031333080317B80000
:10380000031332080317B700031331080317B60078
:10381000BD01BC01BB017F30BA000A128A1103133B
:103820004F250A168A157A08B4007908B30078087B
:10383000B2007708B100881B2A2CAA192A2C0A305A
:103840000317BF000A128A11031391270A168A155B
:10385000AA15792C881F792CAA1D792CAA11AF0AD8
:103860002F08043C0318792C0130AF00AA12B001D4
:10387000FA013908B91BFA03CE007A08CF00FA0121
:103880003A08BA1BFA03D0007A08D10038080317A7
:10389000B500031337080317B400031336080317E2
:1038A000B300031335080317B2000A128A11031379
:1038B000D6260A168A157908D3007808D20034086B
:1038C0000317B500031333080317B40003133208BA
:1038D0000317B300031331080317B2000A128A1149
:1038E0000313D6260A168A157908D5007808D4005D
:1038F0002A150317B3014130B2000430B400B601F9
:103900002B30B5000A120313E3250A168A150A168E
:10391000A92F03081F398300A801A9012A10AA10A2
:103920002A11AA112A12AA12AE01AF01B001B401E4
:10393000B301B201B101B801B701B601B501B901D6
:10394000BA01BB01BC012A13AA13C60183160317CF
:10395000871508300313990002309A00A6309800AA
:103960009030831298004710C801FF30CB00073019
:10397000DA00DE01DD01DC01DB01E201E101E00151
:10398000DF01E601E501E4010630E300C71047115D
:10399000F201F101F001EF01831603170908C039A4
:1039A000890003131F129F1200300317880083122F
:1039B000870188018901831328300313AB00293064
:1039C000AC002A30AD00BD01BE01BF01C001C10184
:1039D000C201C301C401C501C0308B0483160317A3
:1039E0000908C039890003131F129F120030031702
:1039F000880003138500860087008312CB00F03017
:103A00008316880009108910091189118312850114
:103A100086010030CB00831687018312870188015D
:103A2000831609108910091189118312890103175E
:103A3000B3012B30B2000A128A1103131B2B0A1692
:103A40008A150930031785000F30F7000313810131
:103A50008130840083130008F03907388000640047
:103A60000008F739F719F039770480000A120020AE
:103A70000A162A100B30BD00BE001030BF001330F4
:103A8000C0000317B3013D30B2000430B400B601EA
:103A90002B30B5000A120313E3250A16043003176E
:103AA000B200FA30BF000A128A11031391270A16D6
:103AB0008A150317B20B512D0B300313BD00BE0046
:103AC0000530BF00C0010317B3013D30B200043020
:103AD000B400B6012B30B5000A120313E3250A1611
:103AE00004300317B200FA30BF000A128A11031320
:103AF00091270A168A150317B20B732D0A120313A6
:103B000000200A160A128A11B42F0A168A15D90142
:103B1000D8018A1100288A1564002A1B742F0A1202
:103B20006D2E0A16F8080319642F5330F700F70BAF
:103B3000972D83162008323C031D602F2208033A7C
:103B400083120319AA2D073A0319AA2D143A03194F
:103B50009B2E4F2F8316A408031DBE2DA608031D00
:103B6000BE2D83125A08831625020318BE2D250880
:103B7000270783125A020318D02D8316323083127E
:103B80000317B400B6018316031322088312031728
:103B9000B5000230B7000A120313EA260A169A2E5D
:103BA00083162208033C031D382E0310270D8312B1
:103BB0000317B400031083160313250D4C3E831224
:103BC0000317B500B6010318B60A3230B70034083F
:103BD000B8003608BA003508B9003708BD00033010
:103BE000BE000A12031399260A1603173808BF00ED
:103BF0000A12031381260A160317BB0138083B0279
:103C00000318322E3A08FA003908840083133A1850
:103C10008317840A0008BD0084030008BC003D0827
:103C2000BE00BF000A12031381260A1603173A08C2
:103C3000FA003908840083133A188317840A0008AD
:103C4000BD0084030008BC00BE00BF000A120313BD
:103C500081260A1602300317B9070318BA0A023080
:103C6000BB07FE2D0A120313BC260A169A2E8316D2
:103C70000310270D83120317B400031083160313D8
:103C8000250D103E83120317B5000130B60003184E
:103C9000B60A3230B7003408B8003608BA00350822
:103CA000B9003708BD000430BE000A12031399267C
:103CB0000A1603173808BF000A12031381260A16D2
:103CC0000317BB0138083B020318962E3A08FA0086
:103CD0003908840083133A188317840A0008BD004A
:103CE00084030008BC003D08BE00BF000A12031395
:103CF00081260A1603173A08FA003908840083134C
:103D00003A188317840A0008BD0084030008BC0029
:103D1000BE00BF000A12031381260A1602300317E1
:103D2000B9070318BA0A0230BB07622E0A1203133E
:103D3000BC260A165F2F8316A408031DAF2EA60803
:103D4000031DAF2E83125A08831625020318AF2EC7
:103D50002508270783125A020318C12E8316323012
:103D600083120317B400B6018316031322088312CB
:103D70000317B5000230B7000A120313EA260A1629
:103D80004E2F0317B2010530B3000310831603133F
:103D9000280C8312031732020318012F8316031312
:103DA0002508831203173207F7000310F70D770871
:103DB0004C3EF800FA010318FA0A7808B4007A08B1
:103DC000B500A4303307840083130008B600013027
:103DD0003307A43E840083130008B7003608B900F7
:103DE0003708B80034088400831335188317840A11
:103DF00039088000840338088000B20A0230B30713
:103E0000C52E83160313240883120317B5008316E7
:103E10000313250883120317B4008316031326081F
:103E200083120317B700831603132708831203179F
:103E3000B6003230B8003508BA003408B900370887
:103E4000BC003608BB003808BD001030BE000A12A6
:103E5000031399260A1603173A08BD00BF000A1279
:103E6000031381260A1603173908BD00BF000A1282
:103E7000031381260A1603173C08BD00BF000A126F
:103E8000031381260A1603173B08BD00BF000A1260
:103E9000031381260A160A12BC260A165F2F323037
:103EA0000317B400B6018316031322088312031705
:103EB000B5000130B7000A120313EA260A1683166A
:103EC0008312B0080319AA14AA1C6A2F0A12242FFD
:103ED0000A16AA1064300317BF000A128A110313CE
:103EE00091270A168A152A17B008031DA62F2A1F24
:103EF0008C2F0B138B138B1B7A2F0A1200200A16A0
:103F000064300317BF000A128A11031391270A169F
:103F10008A152A13C0308B040317B3013D30B20059
:103F20000430B400B6012B30B5000A120313E325A8
:103F30000A168A11372A8A150A12B72F0A162A1D5D
:103F4000A52F8A11192C8A152A11AE2F300BAA2FF2
:103F50000028AE2F3008013C031CB0018C2D6300FB
:04400E00BA2CFF3F8A
:00000001FF
;PIC16F887
;CRC=35F6  CREATED="05-Jan-23 14:56"
